:100000000C9421010C943E010C943E010C943E0191
:100010000C943E010C943E010C943E010C943E0164
:100020000C943E010C943E010C943E010C943E0154
:100030000C943E010C943E010C943E010C943E0144
:100040000C943E010C943E010C943E010C943E0134
:100050000C943E010C943E010C943E010C943E0124
:100060000C943E010C943E010C943E010C943E0114
:100070000C943E010C943E010C943E010C943E0104
:100080000C943E010C943E010C943E010C943E01F4
:100090000C943E010C943E010C943E010C943E01E4
:1000A0000C943E010C943E010C943E010C943E01D4
:1000B0000C943E01AD03B203B703BC03C103C603F6
:1000C000CB03D0036E616E00696E660000407A104B
:1000D000F35A00A0724E18090010A5D4E80000E8F9
:1000E0007648170000E40B54020000CA9A3B000057
:1000F00000E1F505000080969800000040420F00E6
:100100000000A08601000000102700000000E803A6
:10011000000000006400000000000A000000000071
:100120000100000000002C76D888DC674F0823DF30
:10013000C1DFAE59E1B1B796E5E3E453C63AE65103
:10014000997696E8E6C28426EB898C9B62ED407C2A
:100150006FFCEFBC9C9F40F2BAA56FA5F490055AC6
:100160002AF75C936B6CF9676DC11BFCE0E40D47EB
:10017000FEF520E6B500D0ED902E0300943577050E
:100180000080841E080000204E0A000000C80C33C6
:100190003333330F986E12831141EF8D2114893B55
:1001A000E65516CFFEE6DB18D1844B381BF77C1DD5
:1001B000901DA4BBE424203284725E228100C9F128
:1001C00024ECA1E53D27596F752057696E21004742
:1001D000616D65204F7665722100476F2100566979
:1001E00063746F7279210053504C41542100536362
:1001F0006F72653A20002E2E580042432E0046476B
:10020000410043444500343A2043204D616A6F72F7
:1002100000333A2053636F7265642046726F6767DC
:10022000657200323A20506C61792046726F6767C0
:10023000657200313A20506C617920546F6E65739D
:10024000000011241FBECFEFD8E0DEBFCDBF11E00C
:10025000A0E0B1E0EEE6F9E202C005900D92A23115
:10026000B107D9F721E0A2E1B1E001C01D92AD3D97
:10027000B207E1F70E945B0C0C94B5140C940000DB
:100280000E949B0C089588B1806288B9089588B156
:100290008F7D88B9089598B1907F98B998B18F7083
:1002A000982B98B988B1806188B985E08A95F1F773
:1002B000000088B18F7E88B985E08A95F1F700004B
:1002C0000895CF93C82F82958F700E944B018C2F79
:1002D0008F700E944B018FE391E00197F1F700C00E
:1002E0000000CF9108950E94470181E00E946101C2
:1002F0002FEF80E792E0215080409040E1F700C06E
:10030000000082E00E9461012FEF80E792E021501F
:1003100080409040E1F700C0000008950E9447012E
:1003200082E00E9461012FEF80E792E0215080403F
:100330009040E1F700C000000895CF93C82F0E94BD
:1003400043018C2F0E946101CF910895EF92FF929B
:100350000F931F93CF93DF938C01992334F48DE295
:100360000E949D01119501951109C0E1D7E240E07D
:1003700025C0E02EF12EC801BE010E9409126115B0
:10038000710529F4411103C0C130D10559F480E34E
:10039000860F0E949D018E2D9F2DBE010E94091285
:1003A0008C0141E09E01ADECBCEC0E945612EC01C8
:1003B000D695C795D695C795D695C7952097C9F672
:1003C000DF91CF911F910F91FF90EF900895CF9300
:1003D000DF93EC0105C02196FC0184910E949D01F0
:1003E000CE01FE0124912111F6CFDF91CF91089526
:1003F000CF93DF93D82FC62F0E944701D23031F020
:10040000D33031F0D13031F080E005C084E103C059
:1004100084E501C080E48C0F80680E946101DF9157
:10042000CF91089587B18F6387B92FEF81EE94E064
:10043000215080409040E1F700C000000E94470139
:1004400083E00E944B018FEB9DE50197F1F700C01F
:10045000000083E00E944B0187EE93E00197F1F7E3
:1004600000C0000083E00E944B0187EE93E00197FB
:10047000F1F700C0000082E00E944B0188E20E9478
:1004800061018CE00E94610181E00E9461018FE1C5
:100490009EE40197F1F700C000008CE00E9461012A
:1004A00086E00E94610184E10E9461010E94730163
:1004B00008958AB185618AB98AB185798AB98BB183
:1004C0008A668BB98BB18A7E8BB908958BB18A7E8F
:1004D0008BB985E38A95F1F7000099B19A7681E0AE
:1004E0009A3609F480E00895282F9BB19B7F9BB931
:1004F0009BB191619BB985E38A95F1F7000099B1B1
:100500009A769A3451F018F49A3269F00AC0923609
:1005100031F0983631F481E307C087E305C08AE201
:1005200003C084E201C084E38432E9F49BB19E7F7E
:100530009BB99BB194619BB995E39A95F1F7000043
:1005400099B19A769A3451F018F49A3259F00BC056
:10055000923631F0983639F482E305C088E303C05F
:1005600080E301C085E38432E9F49BB19F7E9BB9AF
:100570009BB195609BB995E39A95F1F7000099B10D
:100580009A769A3451F018F49A3259F00BC0923698
:1005900031F0983639F483E305C089E303C083E280
:1005A00001C086E3843209F4822F08950E94660216
:1005B000882321F084E20E947402089584E2089561
:1005C00082E080936B00E8E6F0E08081897F8083A1
:1005D000808181608083789408950E94730183E311
:1005E00092E00E94E70160E081E00E94F80183E26E
:1005F00092E00E94E70160E082E00E94F80181E160
:1006000092E00E94E70160E083E00E94F80186E04A
:1006100092E00E94E70108950E94730168E080E083
:100620000E94F80182E092E00E94E70168E081E028
:100630000E94F8018EEF91E00E94E70168E082E0FD
:100640000E94F8018AEF91E00E94E70168E083E0F0
:100650000E94F80186EF91E00E94E701089505C02D
:1006600085E08A95F1F70000C9019C01215031090C
:10067000892BB1F70895CF92DF92EF92FF920F93FB
:100680001F93CF93DF938C019C0140E050E060E921
:1006900070ED83E090E00E943112E901C12CD12C71
:1006A000760111C085B1816085B9CE010E942F030A
:1006B00085B18E7F85B9CE010E942F038FEFC81AB6
:1006C000D80AE80AF80AC8019695879596958795FD
:1006D00096958795A0E0B0E0C816D906EA06FB0615
:1006E00008F3DF91CF911F910F91FF90EF90DF9072
:1006F000CF900895CF93DF939C0140E050E060E9F4
:1007000070ED83E090E00E943112E9010CC085B1E8
:10071000816085B9CE010E942F0385B18E7F85B996
:10072000CE010E942F030E9466028111F0CFDF915B
:10073000CF9108950E940C030E94D602833219F4CF
:100740000E94ED02089590E0FC01F197E830F10578
:1007500098F7E65AFF4F0C94501285E091E00E9402
:100760007A03EACF86E291E00E947A03E5CF8AE439
:1007700091E00E947A03E0CF8DE591E00E947A0338
:10078000DBCF88E891E00E947A03D6CF88EB91E036
:100790000E947A03D1CF8EEE91E00E947A03CCCFF3
:1007A0008BE092E00E947A03C7CF84B1816084B964
:1007B00085E091E00E943B032FEF89E698E121500C
:1007C00080409040E1F700C0000086E291E00E9486
:1007D0003B032FEF89E698E1215080409040E1F7FC
:1007E00000C000008AE491E00E943B032FEF89E6FD
:1007F00098E1215080409040E1F700C000008DE575
:1008000091E00E943B032FEF89E698E12150804060
:100810009040E1F700C0000088E891E00E943B03AF
:100820002FEF89E698E1215080409040E1F700C029
:10083000000088EB91E00E943B032FEF89E698E1EE
:10084000215080409040E1F700C000008EEE91E022
:100850000E943B032FEF89E698E1215080409040B1
:10086000E1F700C000008BE092E00E943B032FEF15
:1008700089E698E1215080409040E1F700C00000F7
:100880000E94ED020895CF93DF93EC01A0E0B0E069
:1008900011C094E1969FF001979FF00D1124E85E3E
:1008A000FE4F9D012C0F3D1FE20FF31F90819032F0
:1008B00031F41196A417B50764F381E001C080E01C
:1008C000DF91CF910895CF93DF93EC0120E030E0EA
:1008D0000DC0DB01A20FB31FFA01E21BF30BEC0FFB
:1008E000FD1F319790819C932F5F3F4F2417350751
:1008F00084F3FB01E40FF51F1082DF91CF9108957F
:10090000EF92FF920F931F93CF93DF93C0E0D0E05D
:100910009FC085E18C9FF0018D9FF00D1124E65959
:10092000FE4F8289811193C085E18C9FF0018D9FDC
:10093000F00D1124E659FE4F81E0828B0E940A13CC
:1009400081709078992324F401978E6F9F6F0196A0
:10095000019625E12C9FF0012D9FF00D1124E65901
:10096000FE4F938382830E940A1380FD15C085E1A8
:100970008C9FD0018D9FB00D1124A059BE4F86E0F1
:10098000ECE0F1E001900D928A95E1F70F2EF5E091
:10099000EF2EF12CF02D15C085E18C9FF0018D9F7D
:1009A000F00D1124E059FE4F83E293E2918380839E
:1009B00088E390E0938382830F2EF3E0EF2EF12CF7
:1009C000F02D85E18C9F80018D9F100D1124B801C1
:1009D0006A587E4FA701C80180599E4F0E94630448
:1009E000F801E659FE4FF582E4826281738161303D
:1009F000710589F4F801E659FE4F11821082A701B2
:100A000080E090E00E944304811126C0F801E6597D
:100A1000FE4F128A1CC084E190E08E199F0925E1E7
:100A20002C9FF0012D9FF00D1124E659FE4F91836C
:100A30008083A7010E94430481110EC085E18C9F31
:100A4000F0018D9FF00D1124E659FE4F128A219678
:100A5000C530D1050CF45DCFDF91CF911F910F917F
:100A6000FF90EF90089580E090E05AC025E1289F24
:100A7000F001299FF00D1124E659FE4F228922230F
:100A800009F44DC025E1289FF001299FF00D1124A4
:100A9000E659FE4F228133812130310579F425E179
:100AA000289FF001299FF00D1124E659FE4F208167
:100AB00031812F5F3F4F318320830EC025E1289F76
:100AC000F001299FF00D1124E659FE4F208131815C
:100AD000215031093183208325E1289FF001299F8E
:100AE000F00D1124E659FE4F40815181552374F0D9
:100AF000289FF001299FF00D1124E659FE4F248113
:100B00003581240F351F253131054CF025E1289F13
:100B1000F001299FF00D1124E659FE4F128A01962B
:100B2000853091050CF4A2CF08950F931F93CF93B6
:100B3000DF9340E050E056C085E1849FF001859F3F
:100B4000F00D1124E659FE4F8289882309F448C02C
:100B500085E1849FF001859FF00D1124E659FE4F39
:100B600060817181A281B381A130B10541F4849F7C
:100B7000E001859FD00D1124C059DE4F08C085E1EA
:100B8000849FE001859FD00D1124CA58DE4F80E07C
:100B900090E019C09C01260F371F2431310594F4D1
:100BA000A430B1057CF4FE01E80FF91F108104E1C7
:100BB0000A9FF0010B9FF00D1124E85EFE4FE20F3B
:100BC000F31F1083019625E1249FF001259FF00D6E
:100BD0001124E659FE4F2481358182179307D4F200
:100BE0004F5F5F4F453051050CF4A6CFDF91CF9199
:100BF0001F910F91089580E090E00AC025E1289FA1
:100C0000F001299FF00D1124E659FE4F128A01963A
:100C1000853091059CF308958AE090E09093DA0185
:100C20008093D90183E090E09093D8018093D7011D
:100C300090930901809308011092150110921401FC
:100C400080E090E0A0EAB1E4809304019093050174
:100C5000A0930601B09307018091120190911301B6
:100C6000039721F410921301109212010E94FB05C8
:100C700040E050E015C024E1249FF001259FF00DD5
:100C80001124E85EFE4FE80FF91F20E22083019651
:100C900002C080E090E0843191056CF34F5F5F4FBC
:100CA00044305105B4F320E030E03AC0273031053C
:100CB00031F487E4F901E85EFE4F80832FC02930CC
:100CC000310531F48FE4F901E85EFE4F808326C0E0
:100CD0002B30310531F481E4F901E85EFE4F808369
:100CE0001DC02D30310531F48CE4F901E85EFE4F72
:100CF000808314C020FF07C0C90163E070E00E9438
:100D00001D12892B31F48FE3F901E85EFE4F8083D9
:100D100005C080E2F901E85EFE4F80832F5F3F4F00
:100D2000243131051CF208950E940C0641E050E088
:100D300015C024E1249FF001259FF00D1124E85EE9
:100D4000FE4FE80FF91F20E22083019602C080E0E9
:100D500090E0843191056CF34F5F5F4F4430510553
:100D6000B4F30895CF93DF93EC0160E083E00E9439
:100D7000F801CE010E94A6012FEF81EE94E02150F0
:100D800080409040E1F700C00000DF91CF910895CE
:100D9000CF93DF93EC010E94730164E081E00E9435
:100DA000F8018EEE91E00E94E701CE010E94A601BB
:100DB0002FEF87EA91E6215080409040E1F700C094
:100DC0000000DF91CF910895CF93DF93EC0161E1B3
:100DD00083E00E94F801CE010E94A6012FEF81EE70
:100DE00094E0215080409040E1F700C00000DF9186
:100DF000CF91089580910A0190910B0101979093F2
:100E00000B0180930A010E94730165E081E00E945A
:100E1000F80187EE91E00E94E7018AE491E00E94E8
:100E20003B0385E091E00E943B032FEF83ED90E3CD
:100E3000215080409040E1F700C000000E949406DD
:100E40000895CF93DF9360E070E03EC085E1869F18
:100E5000F001879FF00D1124E659FE4F8289882307
:100E600089F185E1869FF001879FF00D1124E659F5
:100E7000FE4FA081B181C281D38180E090E015C096
:100E80004091D9015091DA019C012A0F3B1F241790
:100E9000350751F42091D7013091D801C217D307FB
:100EA00019F40E94FA064BC0019625E1269FF00135
:100EB000279FF00D1124E659FE4F248135818217BA
:100EC0009307F4F26F5F7F4F653071050CF4BECF6E
:100ED0008091D7019091D801009789F52091D9018F
:100EE0003091DA0144E1489FF001499FF00D11244F
:100EF000E85EFE4FE20FF31F8081803201F50E9411
:100F0000730166E081E00E94F8018EED91E00E949D
:100F1000E70185E091E00E943B0385E091E00E94BB
:100F20003B0385E091E00E943B038AE491E00E944C
:100F30003B0385E091E00E943B030E949406DF9111
:100F4000CF910895EF92FF920F931F93CF93C82FE5
:100F50000E940A1363E070E00E941D12892B11F4B5
:100F60000E9480040E94330540E050E015C024E157
:100F7000249FF001259FF00D1124E85EFE4FE80F3D
:100F8000F91F20E22083019602C080E090E08431C6
:100F900091056CF34F5F5F4F44305105B4F320E08F
:100FA00030E010C020FF07C0C90163E070E00E947C
:100FB0001D12892B29F48FE3F901E85EFE4F80832F
:100FC0002F5F3F4F243131056CF38091D90190910F
:100FD000DA012091D7013091D801C83339F41216C3
:100FE000130634F489010150110903C0890101C0BD
:100FF0008901C03329F42330310514F40F5F1F4FEA
:10100000CA3241F4181619063CF47C0121E0E21AB8
:10101000F10803C07C0101C07C01C33229F443976D
:101020001CF48FEFE81AF80A0E946602882321F068
:101030008DE591E00E943B0384E1809FF001819F58
:10104000F00D1124E85EFE4FEE0DFF1D80818F3301
:1010500019F40E94FA0620C0F092DA01E092D90158
:101060001093D8010093D7010E9421070E94950593
:101070002091D7013091D8018091D9019091DA0166
:1010800044E1429FF001439FF00D1124E85EFE4FC2
:10109000E80FF91F86E28083CF911F910F91FF9097
:1010A000EF9008950F931F93CF93DF930E948E01CB
:1010B00060E080E00E94F801C0E0D0E011C0C0FF15
:1010C00007C0CE0163E070E00E941D12892B21F45D
:1010D0008FEF0E949D0103C080E20E949D01219636
:1010E000C431D10564F301E010E01AC060E0802F44
:1010F0000E94F801C0E0D0E00EC084E1809FF001C2
:10110000819FF00D1124E85EFE4FEC0FFD1F8081E2
:101110000E949D012196C431D1057CF30F5F1F4FC2
:10112000043011051CF36091D9018091D7010E9410
:10113000F80186E20E949D01DF91CF911F910F91EE
:101140000895CF938091D3019091D4010996909303
:10115000D4018093D3010E9494060E94D602C82F26
:101160000E94A2070E9452082FEF81EE94E02150C6
:1011700080409040E1F700C00000C13371F78091DA
:10118000D3019091D40103979093D4018093D3011C
:1011900083E090E090930B0180930A010E94ED029E
:1011A000CF910895CF92DF92EF92FF921F93CF934A
:1011B000DF93182FEB010E940A1380FF0E94800426
:1011C0000E94330520E030E032C02115310569F07E
:1011D00044E1429FF001439FF00D1124E85EFE4F71
:1011E000E80FF91F40E2408319C044E1429FF0013B
:1011F000439FF00D1124E85EFE4FE80FF91F408178
:10120000483561F044E1429FF001439FF00D112405
:10121000E85EFE4FE80FF91F40E24083019602C0EE
:1012200080E090E08431910584F22F5F3F4F2430BD
:101230003105B4F320E030E016C020FF07C0C9013B
:1012400063E070E00E941D12892B31F48FE3F901F5
:10125000E85EFE4F808305C080E2F901E85EFE4F44
:1012600084AF2F5F3F4F243131053CF38091D9018A
:101270009091DA012091D7013091D801183341F4CF
:10128000121613063CF4790141E0E41AF10803C098
:10129000790101C07901103331F4233031051CF498
:1012A0002FEFE21AF20A1A3241F4181619063CF42A
:1012B0006C0141E0C41AD10803C06C0101C06C018B
:1012C000133229F443971CF48FEFC81AD80A0E94EE
:1012D0006602882321F08DE591E00E943B03809116
:1012E000080190910901E816F90661F0E114F10492
:1012F00029F088819981449699838883F092090125
:10130000E092080184E18E9DF0018F9DF00D112483
:10131000E85EFE4FEC0DFD1D80818F3329F088358E
:1013200031F4E114F10419F40E94FA06D7C0D09206
:10133000DA01C092D901F092D801E092D701EF28EA
:1013400009F08DC0803209F08AC085E091E00E94EA
:101350003B038AE491E00E943B038091120190914B
:1013600013010196909313018093120180910A0159
:1013700090910B01019790930B0180930A0120E05B
:1013800030E040E85FE360910401709105018091D5
:101390000601909107010E94C60C20E030E040E277
:1013A00051E40E941F0E6B017C0168817981072E38
:1013B000000C880B990B0E946F0DA70196010E94EB
:1013C000C60C0E94370D7983688380911201909139
:1013D00013018130910581F42091D7013091D8011A
:1013E00030936901209368012091D9013091DA018D
:1013F0003093D6012093D5018230910584F020915D
:10140000D7013091D8013093DC012093DB0120918A
:10141000D9013091DA0130931701209316012AE0A7
:1014200030E03093DA012093D90123E030E03093AB
:10143000D8012093D70140E050E060EA71E4409386
:10144000040150930501609306017093070103970F
:1014500031F4888199818C509E4F998388830E94B2
:1014600021070E949505888199810E94B2066091AA
:1014700004017091050180910601909107010E947D
:10148000370DCB010E94E40623EC35EF48EA5EE31A
:10149000609104017091050180910601909107010E
:1014A0000E94C50C609304017093050180930601AE
:1014B000909307012091D7013091D8018091D901F3
:1014C0009091DA0144E1429FF001439FF00D112415
:1014D000E85EFE4FE80FF91F86E28083DF91CF912F
:1014E0001F91FF90EF90DF90CF900895EF92FF92C1
:1014F0000F931F93CF93DF938C010E948E0160E0C6
:1015000080E00E94F801C0E0D0E011C0C0FF07C039
:10151000CE0163E070E00E941D12892B21F48FEF51
:101520000E949D0103C080E20E949D012196C4316A
:10153000D10564F3C1E0D0E01CC060E08C2F0E94B4
:10154000F801E12CF12C10C084E18C9FF0018D9FFB
:10155000F00D1124E85EFE4FEE0DFF1D80810E940C
:101560009D018FEFE81AF80A84E1E816F10464F3AC
:101570002196C430D1050CF3C8010E94B2068091B7
:1015800012019091130118161906CCF4809168018C
:10159000909169016091D5017091D60124E1289F55
:1015A000F001299FF00D1124E85EFE4FE60FF71FB2
:1015B00098E590830E94F80188E50E949D01809142
:1015C0001201909113010297C9F48091DB0190916F
:1015D000DC01609116017091170124E1289FF00150
:1015E000299FF00D1124E85EFE4FE60FF71F98E5E6
:1015F00090830E94F80188E50E949D0180910A0174
:1016000090910B01039744F063E180E00E94F801A0
:1016100088E50E949D0107C063E180E00E94F80117
:1016200080E20E949D0180910A0190910B01029736
:1016300044F063E181E00E94F80188E50E949D0189
:1016400007C063E181E00E94F80180E20E949D01F1
:1016500080910A0190910B011816190644F463E178
:1016600082E00E94F80188E50E949D0107C063E1C5
:1016700082E00E94F80180E20E949D016091D90100
:101680008091D7010E94F80186E20E949D01DF91BE
:10169000CF911F910F91FF90EF90089560910401F9
:1016A00070910501809106019091070120E030E0E2
:1016B000A9010E94320D181684F480910A019091BC
:1016C0000B011816190664F4809112019091130110
:1016D000039749F482E090E0089581E090E0089556
:1016E00081E090E0089580E090E008950F931F93CB
:1016F000CF93DF9300D0CDB7DEB79A8389838091F3
:10170000D3019091D40105969093D4018093D30195
:1017100003E010E018C00E94730168E081E00E94BD
:10172000F801C8010E94A60185E091E00E943B03F8
:101730002FEF89E698E1215080409040E1F700C00A
:10174000000001501109101611062CF30E947301BC
:1017500068E081E00E94F8018AED91E00E94E701D3
:101760008BE092E00E943B032FEF83ED90E321504A
:1017700080409040E1F700C000000E9494060E9463
:10178000D602182FBE016F5F7F4F0E94D208898159
:101790009A810E94760A0E944E0B8130910511F0C9
:1017A0001133E1F58091D3019091D4010297909388
:1017B000D4018093D3010E94730166E081E00E940E
:1017C000F8018FEC91E00E94E7018AE491E00E9429
:1017D0003B038AE491E00E943B0386E291E00E9491
:1017E0003B0386E291E00E943B0385E091E00E948A
:1017F0003B0385E091E00E943B0389819A810E942E
:10180000C80683E090E090930B0180930A01109248
:101810001301109212010E94ED0246C0029709F0D6
:10182000AECF8091D3019091D4010A969093D401C8
:101830008093D3010E94730166E081E00E94F80169
:1018400086EC91E00E94E7018AE491E00E943B036C
:1018500088E891E00E943B0388EB91E00E943B0303
:1018600088E891E00E943B038DE591E00E943B03F4
:101870008AE491E00E943B0386E291E00E943B03F0
:1018800085E091E00E943B0389819A810E94C8060D
:1018900083E090E090930B0180930A011092130172
:1018A000109212010E94ED020F900F90DF91CF91E4
:1018B0001F910F9108950E9440010E9412020E9400
:1018C0008E010E9459028FE99FE00197F1F700C055
:1018D00000000E94E002F8940E94ED020E94D602ED
:1018E000C82F8091D3019091D4010E940F139FEFD4
:1018F00029E688E1915020408040E1F700C00000D7
:10190000C23361F018F4C13331F0E8CFC33349F08A
:10191000C43371F0E3CF0E949A03E0CF0E94A10884
:10192000DDCF80911401909115010E94760BD6CFE6
:101930000E94D503D3CF8DE3809365008FEF809312
:10194000640094B114B895B185B997B1907897B9FE
:1019500098B19F6798B99AB11AB89BB18BB98DB1FC
:10196000807F8DB98EB18F608EB940E060E881E6EE
:1019700090E00E94BE0C13BE15BE08952FB7F894D8
:10198000FC01608340832FBF08955058BB27AA27CE
:101990000E94DD0C0C94E50D0E94D70D38F00E94DA
:1019A000DE0D20F039F49F3F19F426F40C94D40D89
:1019B0000EF4E095E7FB0C94CE0DE92F0E94F60D96
:1019C00058F3BA17620773078407950720F079F474
:1019D000A6F50C94180E0EF4E0950B2EBA2FA02D40
:1019E0000B01B90190010C01CA01A0011124FF27CC
:1019F000591B99F0593F50F4503E68F11A16F040C7
:101A0000A22F232F342F4427585FF3CF46953795C5
:101A10002795A795F0405395C9F77EF41F16BA0B8A
:101A2000620B730B840BBAF09150A1F0FF0FBB1F38
:101A3000661F771F881FC2F70EC0BA0F621F731F81
:101A4000841F48F4879577956795B795F7959E3FDE
:101A500008F0B0CF9395880F08F09927EE0F97956F
:101A6000879508950E94AA0D08F481E008950E94C8
:101A70003E0D6894B1110C94190E08950E94FE0D4C
:101A800088F09F5798F0B92F9927B751B0F0E1F03F
:101A9000660F771F881F991F1AF0BA95C9F714C0EF
:101AA000B13091F00E94180EB1E008950C94180E18
:101AB000672F782F8827B85F39F0B93FCCF3869528
:101AC00077956795B395D9F73EF490958095709585
:101AD00061957F4F8F4F9F4F0895E89409C097FB02
:101AE0003EF490958095709561957F4F8F4F9F4FF5
:101AF0009923A9F0F92F96E9BB279395F695879539
:101B000077956795B795F111F8CFFAF4BB0F11F4FB
:101B100060FF1BC06F5F7F4F8F4F9F4F16C08823A2
:101B200011F096E911C0772321F09EE8872F762FD8
:101B300005C0662371F096E8862F70E060E02AF019
:101B40009A95660F771F881FDAF7880F9695879505
:101B500097F90895990F0008550FAA0BE0E8FEEFDA
:101B600016161706E807F907C0F012161306E40761
:101B7000F50798F0621B730B840B950B39F40A265A
:101B800061F0232B242B252B21F408950A2609F438
:101B9000A140A6958FEF811D811D089597F99F673C
:101BA00080E870E060E008959FEF80EC08950024E5
:101BB0000A941616170618060906089500240A94B2
:101BC00012161306140605060895092E0394000C38
:101BD00011F4882352F0BB0F40F4BF2B11F460FFC7
:101BE00004C06F5F7F4F8F4F9F4F089557FD9058F0
:101BF000440F551F59F05F3F71F04795880F97FBD1
:101C0000991F61F09F3F79F087950895121613068A
:101C10001406551FF2CF4695F1DF08C016161706B9
:101C20001806991FF1CF86957105610508940895EE
:101C3000E894BB2766277727CB0197F908950E9480
:101C4000320E0C94E50D0E94D70D38F00E94DE0D87
:101C500020F0952311F00C94CE0D0C94D40D11248A
:101C60000C94190E0E94F60D70F3959FC1F3950F19
:101C700050E0551F629FF001729FBB27F00DB11D10
:101C8000639FAA27F00DB11DAA1F649F6627B00DA0
:101C9000A11D661F829F2227B00DA11D621F739F89
:101CA000B00DA11D621F839FA00D611D221F749F97
:101CB0003327A00D611D231F849F600D211D822FDE
:101CC000762F6A2F11249F5750409AF0F1F0882305
:101CD0004AF0EE0FFF1FBB1F661F771F881F915032
:101CE0005040A9F79E3F510580F00C94CE0D0C9406
:101CF000190E5F3FE4F3983ED4F386957795679588
:101D0000B795F795E7959F5FC1F7FE2B880F911D5B
:101D10009695879597F90895A0E1B0E0E2E9FEE095
:101D20000C9465127C011B016A01FC01178216826A
:101D3000838181FF44C39E012F5F3F4F3901F7012B
:101D40009381F10193FD859193FF81911F01882378
:101D500009F431C3853239F493FD859193FF819164
:101D60001F01853239F4B70190E00E940814560132
:101D70006501E5CF10E0512C912CFFE1F915D8F069
:101D80008B3279F038F4803279F08332A1F4F92D76
:101D9000F0612EC08D3261F0803369F4292D21600D
:101DA0002DC0392D3260932E892D8460982E2AC043
:101DB000E92DE86015C097FC2DC020ED280F2A30D2
:101DC00088F496FE06C03AE0139F200D1124122FCE
:101DD00019C08AE0589E200D1124522EE92DE06290
:101DE0009E2E10C08E3231F496FCE5C2F92DF064BF
:101DF0009F2E08C08C3621F4292D2068922E02C017
:101E0000883641F4F10193FD859193FF81911F0183
:101E10008111B3CF9BEB980F933020F4992D9061F3
:101E2000805E07C09BE9980F933008F066C1992D3A
:101E30009F7E96FF16E09F73992E853619F4906465
:101E4000992E08C0863621F4392F3068932E02C0AF
:101E50001111115097FE07C01C3350F444244394D1
:101E6000410E27E00BC0183038F027E017E005C01E
:101E700027E09CE3492E02C0212F412C560184E02B
:101E8000A80EB11CF6016081718182819381042DBD
:101E9000A3010E941A136C01F981FC87F0FF02C0B4
:101EA000F3FF06C091FC06C092FE06C000E205C02A
:101EB0000DE203C00BE201C000E08C858C7019F0CC
:101EC00001115AC29BC297FE10C04C0CFC85F4FF56
:101ED00004C08A81813309F44A94141474F528E00B
:101EE000241578F588E0482E2CC096FC2AC0812F56
:101EF00090E08C159D059CF03CEFC3163FEFD30698
:101F000074F0892D8068982E0AC0E2E0F0E0EC0FB2
:101F1000FD1FE10FF11D8081803319F41150111163
:101F2000F4CF97FE0EC044244394410E812F90E0DD
:101F3000C816D9062CF41C1904C04424439401C0CB
:101F400010E097FE06C01C141D0434F4C60101966F
:101F500005C085E090E002C081E090E001110196AB
:101F6000112331F0212F30E02F5F3F4F820F931F5D
:101F7000252D30E08217930714F4581A01C0512C14
:101F8000892D897049F4552039F0B70180E290E03D
:101F90000E9408145A94F7CF002329F0B701802F2C
:101FA00090E00E94081493FC09C0552039F0B70155
:101FB00080E390E00E9408145A94F7CF97FE4CC03B
:101FC0004601D7FE02C0812C912CC60188199909BF
:101FD000F301E80FF91FFE87ED87960124193109F7
:101FE000388B2F87012F10E01195019511093FEFD4
:101FF0008316930629F4B7018EE290E00E9408143C
:10200000C814D9044CF08F8598898815990524F453
:10201000ED85FE85818101C080E3F1E08F1A910892
:102020002D853E852F5F3F4F3E872D878016910679
:102030002CF0B70190E00E940814D9CFC814D9043D
:1020400041F49A81963320F4953319F43C8534FF9A
:1020500081E3B70190E04EC08A81813319F09C85FD
:102060009F7E9C87B70190E00E940814111105C063
:1020700094FC18C085E690E017C0B7018EE290E0AE
:102080000E9408141E5F82E001E0080FF301E80FD0
:10209000F11D8081B70190E00E940814802F011388
:1020A000F3CFE6CF85E490E0B7010E940814D7FC97
:1020B00006C0C114D10441F4EC85E4FF05C0D194FD
:1020C000C194D1088DE201C08BE2B70190E00E947B
:1020D000081480E32AE0C216D1042CF08F5FFAE0E6
:1020E000CF1AD108F7CFB70190E00E940814B701CA
:1020F000C601C0960E94081454C1833631F083375C
:1021000079F0833509F056C020C0560132E0A30EA5
:10211000B11CF6018081898301E010E0630112C0E7
:102120005601F2E0AF0EB11CF601C080D18096FEE0
:1021300003C0612F70E002C06FEF7FEFC6010E9405
:10214000FD138C01F92DFF7714C0560122E0A20E79
:10215000B11CF601C080D18096FE03C0612F70E0F3
:1021600002C06FEF7FEFC6010E94F2138C01F92DC0
:10217000F0689F2EF3FD1AC0852D90E0081719070F
:10218000A8F4B70180E290E00E9408145A94F4CFBA
:10219000F60197FC859197FE81916F01B70190E060
:1021A0000E94081451105A9401501109011511058B
:1021B00079F7F7C0843611F0893661F5560197FE3C
:1021C00009C024E0A20EB11CF601608171818281F8
:1021D00093810AC0F2E0AF0EB11CF60160817181FB
:1021E000072E000C880B990BF92DFF769F2E97FF79
:1021F00009C090958095709561957F4F8F4F9F4F47
:10220000F0689F2E2AE030E0A3010E944414C82EFB
:10221000C6183FC0092D853721F40F7E2AE030E033
:102220001DC0097F8F3691F018F4883559F0C3C06E
:10223000803719F0883711F0BEC0006104FF09C073
:10224000046007C094FE08C0066006C028E030E0C5
:1022500005C020E130E002C020E132E0560107FF76
:1022600009C084E0A80EB11CF601608171818281F1
:10227000938108C0F2E0AF0EB11CF601608171815C
:1022800080E090E0A3010E944414C82EC6180F7786
:10229000902E96FE0BC0092D0E7FC11650F494FEB1
:1022A0000AC092FC08C0092D0E7E05C0DC2C092D49
:1022B00003C0DC2C01C0D12E04FF0DC0FE01EC0DCB
:1022C000F11D8081803311F4097E09C002FF06C030
:1022D000D394D39404C0802F867809F0D39403FD5F
:1022E00011C000FF06C01C2DD51480F4150D1D195A
:1022F0000DC0D51458F4B70180E290E00E94081494
:10230000D394F7CFD51410F45D1801C0512C04FFFD
:1023100010C0B70180E390E00E94081402FF17C0CC
:1023200001FD03C088E790E002C088E590E0B701B6
:102330000CC0802F867859F001FF02C08BE201C0EB
:1023400080E207FD8DE2B70190E00E940814C116FB
:1023500038F4B70180E390E00E9408141150F7CFE1
:10236000CA94F301EC0DF11D8081B70190E00E9449
:102370000814C110F5CF15C0F4E0F51560F584E040
:10238000581A93FE1FC0011127C02C8523FF2AC0B5
:1023900004EC10E0392D3071932EF80184918111F5
:1023A00024C0552009F4E4CCB70180E290E00E94FB
:1023B00008145A94F6CFF7018681978126C08FEFD3
:1023C0009FEF23C0B70180E290E00E9408145A9466
:1023D0005110F8CFD8CF512CB701802F90E00E9438
:1023E0000814D3CF08EC10E0D5CF91108052B7017C
:1023F00090E00E9408140F5F1F4FCFCF23E02515F8
:1024000010F483E0BDCF512CC0CF6096E2E10C9474
:102410008112AA1BBB1B51E107C0AA1FBB1FA61735
:10242000B70710F0A61BB70B881F991F5A95A9F77D
:1024300080959095BC01CD01089597FB072E16F469
:10244000009407D077FD09D00E94091207FC05D03F
:102450003EF4909581959F4F0895709561957F4FBB
:102460000895052E97FB1EF400940E94481257FD14
:1024700007D00E949C1207FC03D04EF40C94481223
:1024800050954095309521953F4F4F4F5F4F0895A0
:1024900090958095709561957F4F8F4F9F4F0895D0
:1024A000EE0FFF1F0590F491E02D0994A29FB0015B
:1024B000B39FC001A39F700D811D1124911DB29F78
:1024C000700D811D1124911D08952F923F924F92FE
:1024D0005F926F927F928F929F92AF92BF92CF92B4
:1024E000DF92EF92FF920F931F93CF93DF93CDB7BD
:1024F000DEB7CA1BDB0B0FB6F894DEBF0FBECDBF35
:1025000009942A88398848885F846E847D848C8405
:102510009B84AA84B984C884DF80EE80FD800C810E
:102520001B81AA81B981CE0FD11D0FB6F894DEBFF1
:102530000FBECDBFED010895A1E21A2EAA1BBB1B51
:10254000FD010DC0AA1FBB1FEE1FFF1FA217B3077F
:10255000E407F50720F0A21BB30BE40BF50B661F95
:10256000771F881F991F1A9469F760957095809559
:1025700090959B01AC01BD01CF0108958F929F9270
:10258000AF92BF92CF92DF92EF92FF92CF93DF9301
:10259000EC01688179818A819B81611571058105D2
:1025A000910521F464E279ED8BE597E02DE133EFBD
:1025B00041E050E00E94311249015A019B01AC01F7
:1025C000A7EAB1E40E94A2146B017C01ACEEB4EF67
:1025D000A50194010E94B014DC01CB018C0D9D1D5E
:1025E000AE1DBF1DB7FF03C00197A109B048888386
:1025F0009983AA83BB839F77DF91CF91FF90EF9060
:10260000DF90CF90BF90AF909F908F9008950E94E1
:10261000BE12089580E091E00E94BE120895A0E0ED
:10262000B0E08093000190930101A0930201B09368
:1026300003010895283008F027E03327DA01990FC5
:10264000311D87FD916000966105710539F4326096
:102650002E5F3D9330E32A95E1F708959F3F30F0D8
:1026600080387105610509F03C5F3C5F3D93913016
:1026700008F08068911DDF93CF931F930F93FF9213
:10268000EF92192F987F9695E92F96959695E90FD9
:10269000FF27EA5DFE4F99273327EE24FF24A70189
:1026A000E70105900894079428F4360FE71EF81EFA
:1026B000491F511D660F771F881F991F0694A1F7A8
:1026C0000590079428F4E70EF81E491F561FC11DF8
:1026D000770F881F991F661F0694A1F7059007942E
:1026E00028F4F80E491F561FC71FD11D880F991FC8
:1026F000661F771F0694A1F70590079420F4490FF1
:10270000561FC71FD81F990F661F771F881F069473
:10271000A9F784911095177041F0D695C7955795F4
:102720004795F794E7941A95C1F7ECECF0E06894BC
:102730001590159135916591959105907FE273956E
:10274000E118F10A430B560BC90BD009C0F7E10C95
:10275000F11E431F561FC91FD01D7EF4703311F4A4
:102760008A95E6CFE894015030F0080F0AF400276C
:10277000021708F4202F2395022F7A3328F079E3EB
:102780007D932A95E9F710C07D932A9589F60694E2
:1027900097956795379517951794E118F10A430BAC
:1027A000560BC90BD00998F023957E9173957A3317
:1027B00008F070E37C932013B8F77E9170617D93ED
:1027C00030F0839571E37D9370E32A95E1F711244E
:1027D000EF90FF900F911F91CF91DF91992787FD87
:1027E00090950895FC010590615070400110D8F754
:1027F000809590958E0F9F1F0895FC016150704049
:1028000001900110D8F7809590958E0F9F1F089525
:102810000F931F93CF93DF93FB01238121FD03C00F
:102820008FEF9FEF2CC022FF16C046815781248175
:1028300035814217530744F4A081B1819D012F5F78
:102840003F4F318320838C93268137812F5F3F4F09
:102850003783268314C08B01EC01FB010084F185D2
:10286000E02D0995892BE1F6D80116968D919C9162
:102870001797019617969C938E931697CE01DF912A
:10288000CF911F910F910895FA01AA27283051F195
:10289000203181F1E8946F936E7F6E5F7F4F8F4F91
:1028A0009F4FAF4FB1E03ED0B4E03CD0670F781FF0
:1028B000891F9A1FA11D680F791F8A1F911DA11DD5
:1028C0006A0F711D811D911DA11D20D009F468940E
:1028D0003F912AE0269F11243019305D3193DEF6B6
:1028E000CF010895462F4770405D4193B3E00FD06C
:1028F000C9F7F6CF462F4F70405D4A3318F0495D57
:1029000031FD4052419302D0A9F7EACFB4E0A69539
:102910009795879577956795BA95C9F7009761055B
:10292000710508959B01AC010A2E069457954795B1
:1029300037952795BA95C9F7620F731F841F951FA6
:10294000A01D08950E945612A59F900DB49F900D52
:10295000A49F800D911D11240895B7FF0C94A2141B
:0E2960000E94A214821B930B0895F894FFCFDF
:10296E00010000000000A0410300030023232323E5
:02297E00540003
:00000001FF
