:100000000C94E5000C9402010C9402010C9425045C
:100010000C9402010C9402010C9402010C94020154
:100020000C9402010C9402010C9402010C94020144
:100030000C9402010C9402010C9402010C94020134
:100040000C9402010C9402010C9402010C94020124
:100050000C9402010C9402010C9402010C94020114
:100060000C9402010C9402010C9402010C94020104
:100070000C9402010C9402010C9402010C940201F4
:100080000C9402010C9402010C9402010C940201E4
:100090000C9402010C9402010C9402010C940201D4
:1000A0000C9402010C9402010C9402010C940201C4
:1000B0000C9402016E616E00696E660000407A1059
:1000C000F35A00A0724E18090010A5D4E80000E809
:1000D0007648170000E40B54020000CA9A3B000067
:1000E00000E1F505000080969800000040420F00F6
:1000F0000000A08601000000102700000000E803B7
:10010000000000006400000000000A000000000081
:100110000100000000002C76D888DC674F0823DF40
:10012000C1DFAE59E1B1B796E5E3E453C63AE65113
:10013000997696E8E6C28426EB898C9B62ED407C3A
:100140006FFCEFBC9C9F40F2BAA56FA5F490055AD6
:100150002AF75C936B6CF9676DC11BFCE0E40D47FB
:10016000FEF520E6B500D0ED902E0300943577051E
:100170000080841E080000204E0A000000C80C33D6
:100180003333330F986E12831141EF8D2114893B65
:10019000E65516CFFEE6DB18D1844B381BF77C1DE5
:1001A000901DA4BBE424203284725E228100C9F138
:1001B00024ECA1E53D27566963746F7279210047ED
:1001C000616D65204F766572210011241FBECFEF4F
:1001D000D8E0DEBFCDBF11E0A0E0B1E0E6E5F8E198
:1001E00002C005900D92AA30B107D9F723E0AAE02A
:1001F000B1E001C01D92A230B207E1F70E94B7053D
:100200000C94290C0C9400000E94DC05089588B120
:10021000806288B9089588B18F7D88B9089598B1B2
:10022000907F98B998B18F70982B98B988B18061F8
:1002300088B985E08A95F1F7000088B18F7E88B98A
:1002400085E08A95F1F700000895CF93C82F829535
:100250008F700E940F018C2F8F700E940F018FE30F
:1002600091E00197F1F700C00000CF9108950E943E
:100270000B0181E00E9425012FEF80E792E02150E1
:1002800080409040E1F700C0000082E00E9425011C
:100290002FEF80E792E0215080409040E1F700C0CE
:1002A000000008950E940B0182E00E9425012FEFBB
:1002B00080E792E0215080409040E1F700C00000CC
:1002C0000895CF93C82F0E9407018C2F0E9425010B
:1002D000CF910895CF93DF93EC0105C02196FC01E7
:1002E00084910E946101CE01FE0124912111F6CF7B
:1002F000DF91CF910895CF93DF93D82FC62F0E941F
:100300000B01D23031F0D33031F0D13031F080E018
:1003100005C084E103C084E501C080E48C0F8068DF
:100320000E942501DF91CF91089587B18F6387B92E
:100330002FEF81EE94E0215080409040E1F700C023
:1003400000000E940B0183E00E940F018FEB9DE5EE
:100350000197F1F700C0000083E00E940F0187EED3
:1003600093E00197F1F700C0000083E00E940F01C5
:1003700087EE93E00197F1F700C0000082E00E9451
:100380000F0188E20E9425018CE00E94250181E096
:100390000E9425018FE19EE40197F1F700C0000063
:1003A0008CE00E94250186E00E94250184E10E94E4
:1003B00025010E9437010895CF93DF93EC01A0E05F
:1003C000B0E011C094E1969FF001979FF00D1124C9
:1003D000E65FFE4F9D012C0F3D1FE20FF31F908142
:1003E000903231F41196A417B50764F381E001C08F
:1003F00080E0DF91CF910895CF93DF93EC0120E06F
:1004000030E00DC0DB01A20FB31FFA01E21BF30BBA
:10041000EC0FFD1F319790819C932F5F3F4F241766
:10042000350784F3FB01E40FF51F1082DF91CF91B4
:100430000895EF92FF920F931F93CF93DF93C0E045
:10044000D0E09FC085E18C9FF0018D9FF00D1124BD
:10045000E65AFE4F8289811193C085E18C9FF0019D
:100460008D9FF00D1124E65AFE4F81E0828B0E9491
:100470003D0A81709078992324F401978E6F9F6FC5
:100480000196019625E12C9FF0012D9FF00D11247E
:10049000E65AFE4F938382830E943D0A80FD16C078
:1004A00085E18C9FF0018D9FF00D1124E05AFE4FE5
:1004B00083E293E29183808388E390E09383828355
:1004C0000F2EF3E0EF2EF12CF02D14C085E18C9F60
:1004D000D0018D9FB00D1124A05ABE4F86E0E4E0FC
:1004E000F1E001900D928A95E1F70F2EF5E0EF2EE5
:1004F000F12CF02D85E18C9F80018D9F100D112432
:10050000B8016A597E4FA701C801805A9E4F0E94C8
:10051000FC01F801E65AFE4FF582E48262817381A4
:100520006130710589F4F801E65AFE4F118210829C
:10053000A70180E090E00E94DC01811126C0F80153
:10054000E65AFE4F128A1CC084E190E08E199F0982
:1005500025E12C9FF0012D9FF00D1124E65AFE4F4E
:1005600091838083A7010E94DC0181110EC085E187
:100570008C9FF0018D9FF00D1124E65AFE4F128AD8
:100580002196C431D1050CF45DCFDF91CF911F913D
:100590000F91FF90EF90089580E090E054C025E126
:1005A000289FF001299FF00D1124E65AFE4F228961
:1005B000222309F447C025E1289FF001299FF00D6F
:1005C0001124E65AFE4F228133812130310579F41E
:1005D00025E1289FF001299FF00D1124E65AFE4FD6
:1005E000208131812F5F3F4F318320830EC025E171
:1005F000289FF001299FF00D1124E65AFE4F20811B
:100600003181215031093183208325E1289FF00178
:10061000299FF00D1124E65AFE4F4081518124811B
:100620003581240F351F233031051CF0423151052F
:100630004CF025E1289FF001299FF00D1124E65A86
:10064000FE4F128A0196843191050CF4A8CF0895CB
:100650000F931F93CF93DF9340E050E056C085E1A6
:10066000849FF001859FF00D1124E65AFE4F828988
:10067000882309F448C085E1849FF001859FF00D2F
:100680001124E65AFE4F60817181A281B381A130AD
:10069000B10541F4849FE001859FD00D1124C05A1B
:1006A000DE4F08C085E1849FE001859FD00D1124B5
:1006B000CA59DE4F80E090E019C09C01260F371F19
:1006C0002431310594F4A430B1057CF4FE01E80F27
:1006D000F91F108104E10A9FF0010B9FF00D112416
:1006E000E65FFE4FE20FF31F1083019625E1249F82
:1006F000F001259FF00D1124E65AFE4F248135812B
:1007000082179307D4F24F5F5F4F443151050CF4C9
:10071000A6CFDF91CF911F910F9108958AB1856186
:100720008AB98AB185798AB98BB18A668BB98BB15E
:100730008A7E8BB908958BB18A7E8BB985E38A95C1
:10074000F1F7000099B19A7681E09A3609F480E0D9
:100750000895282F9BB19B7F9BB99BB191619BB959
:1007600085E38A95F1F7000099B19A769A3451F0B1
:1007700018F49A3269F00AC0923631F0983631F4A2
:1007800081E307C087E305C08AE203C084E201C0B9
:1007900084E38432E9F49BB19E7F9BB99BB1946161
:1007A0009BB995E39A95F1F7000099B19A769A343E
:1007B00051F018F49A3259F00BC0923631F0983655
:1007C00039F482E305C088E303C080E301C085E318
:1007D0008432E9F49BB19F7E9BB99BB195609BB934
:1007E00095E39A95F1F7000099B19A769A3451F011
:1007F00018F49A3259F00BC0923631F0983639F429
:1008000083E305C089E303C083E201C086E3843249
:1008100009F4822F089582E080936B00E8E6F0E00F
:100820008081897F8083808181608083789408952E
:1008300084B18D7F84B985B1826085B984B18560CA
:1008400084B985B1856085B908951F920F920FB65E
:100850000F9211248F939F938FE39CE90197F1F7F7
:1008600000C0000019990BC085B18570853021F05A
:1008700085B1856085B903C085B18B7F85B981E07D
:100880008BBB9F918F910F900FBE0F901F9018956B
:100890008AE090E0909301038093000383E090E06E
:1008A0009093FF028093FE0240E050E015C024E1E7
:1008B000249FF001259FF00D1124E65FFE4FE80F05
:1008C000F91F20E22083019602C080E090E084318D
:1008D00091056CF34F5F5F4F44305105B4F30895B9
:1008E0000E949B03882321F084E20E94A9030895BB
:1008F00084E20895CF93DF9360E070E04BC085E120
:10090000869FF001879FF00D1124E65AFE4F8289E1
:100910008823F1F185E1869FF001879FF00D112476
:10092000E65AFE4FA081B181C281D38180E090E080
:1009300022C040910003509101039C012A0F3B1FEC
:1009400024173507B9F42091FE023091FF02C21737
:10095000D30781F48FEB91E00E946A012FEF87EAC1
:1009600091E6215080409040E1F700C000000E94D5
:1009700048043AC0019625E1269FF001279FF00D1B
:100980001124E65AFE4F24813581821793078CF299
:100990006F5F7F4F643171050CF4B1CF8091FE021F
:1009A0009091FF02009701F520910003309101031F
:1009B00044E1489FF001499FF00D1124E65FFE4F8E
:1009C000E20FF31F80818F3379F486EB91E00E9470
:1009D0006A012FEF87EA91E6215080409040E1F7CD
:1009E00000C000000E944804DF91CF910895CF938A
:1009F000C82F0E943D0A6AE070E00E949709892B87
:100A000011F40E9419020E94CC0240E050E015C08F
:100A100024E1249FF001259FF00D1124E65FFE4F95
:100A2000E80FF91F20E22083019602C080E090E0E9
:100A3000843191056CF34F5F5F4F44305105B4F33F
:100A400080E090E006C0FC01E65FFE4F2FE32083CC
:100A5000019684319105BCF3C83361F48091FE02A4
:100A60009091FF02181619062CF401979093FF023B
:100A70008093FE02C03361F48091FE029091FF02E8
:100A8000833091052CF401969093FF028093FE022F
:100A9000CA3261F48091000390910103181619067F
:100AA0002CF401979093010380930003C33261F407
:100AB0008091000390910103833191052CF40196FC
:100AC00090930103809300030E947A040E942803FC
:100AD0002091FE023091FF0280910003909101036A
:100AE00044E1429FF001439FF00D1124E65FFE4F69
:100AF000E80FF91F86E28083CF9108950F931F932B
:100B0000CF93DF930E94520160E080E00E947B015E
:100B1000C0E0D0E004C08FEF0E9461012196C43193
:100B2000D105CCF301E010E01AC060E0802F0E94F4
:100B30007B01C0E0D0E00EC084E1809FF001819F86
:100B4000F00D1124E65FFE4FEC0FFD1F80810E9427
:100B500061012196C431D1057CF30F5F1F4F043032
:100B600011051CF3DF91CF911F910F9108950E9401
:100B700004010E9495010E9452010E948E030E946E
:100B800018048FE99FE00197F1F700C000000E9470
:100B90000B04F8940E9448040E9470040E94F70419
:100BA0000E947E059FEF21EE84E09150204080401E
:100BB000E1F700C00000F0CF8DE3809365008FEF78
:100BC0008093640094B114B895B185B997B19078C9
:100BD00097B998B19F6798B99AB11AB89BB18BB978
:100BE0008DB1807F8DB98EB18F608EB940E060E8A5
:100BF00081E690E00E94FF0513BE15BE08952FB751
:100C0000F894FC01608340832FBF0895A0E1B0E019
:100C1000ECE0F6E00C94BA097C011B016A01FC01CE
:100C200017821682838181FF44C39E012F5F3F4F4D
:100C30003901F7019381F10193FD859193FF819132
:100C40001F01882309F431C3853239F493FD85915E
:100C500093FF81911F01853239F4B70190E00E9422
:100C60003B0B56016501E5CF10E0512C912CFFE1C3
:100C7000F915D8F08B3279F038F4803279F083327C
:100C8000A1F4F92DF0612EC08D3261F0803369F44A
:100C9000292D21602DC0392D3260932E892D84603D
:100CA000982E2AC0E92DE86015C097FC2DC020EDD4
:100CB000280F2A3088F496FE06C03AE0139F200DD4
:100CC0001124122F19C08AE0589E200D1124522E93
:100CD000E92DE0629E2E10C08E3231F496FCE5C202
:100CE000F92DF0649F2E08C08C3621F4292D206840
:100CF000922E02C0883641F4F10193FD859193FF55
:100D000081911F018111B3CF9BEB980F933020F499
:100D1000992D9061805E07C09BE9980F933008F091
:100D200066C1992D9F7E96FF16E09F73992E85369A
:100D300019F49064992E08C0863621F4392F306852
:100D4000932E02C01111115097FE07C01C3350F4AE
:100D500044244394410E27E00BC0183038F027E0BC
:100D600017E005C027E09CE3492E02C0212F412C4B
:100D7000560184E0A80EB11CF60160817181828168
:100D80009381042DA3010E944D0A6C01F981FC8717
:100D9000F0FF02C0F3FF06C091FC06C092FE06C041
:100DA00000E205C00DE203C00BE201C000E08C854B
:100DB0008C7019F001115AC29BC297FE10C04C0CE6
:100DC000FC85F4FF04C08A81813309F44A94141429
:100DD00074F528E0241578F588E0482E2CC096FCA0
:100DE0002AC0812F90E08C159D059CF03CEFC31626
:100DF0003FEFD30674F0892D8068982E0AC0E2E098
:100E0000F0E0EC0FFD1FE10FF11D8081803319F43C
:100E100011501111F4CF97FE0EC044244394410E9B
:100E2000812F90E0C816D9062CF41C1904C0442464
:100E3000439401C010E097FE06C01C141D0434F456
:100E4000C601019605C085E090E002C081E090E017
:100E500001110196112331F0212F30E02F5F3F4F18
:100E6000820F931F252D30E08217930714F4581A30
:100E700001C0512C892D897049F4552039F0B701F2
:100E800080E290E00E943B0B5A94F7CF002329F0B8
:100E9000B701802F90E00E943B0B93FC09C05520C6
:100EA00039F0B70180E390E00E943B0B5A94F7CFF2
:100EB00097FE4CC04601D7FE02C0812C912CC60182
:100EC00088199909F301E80FF91FFE87ED8796014C
:100ED00024193109388B2F87012F10E011950195C6
:100EE00011093FEF8316930629F4B7018EE290E0D3
:100EF0000E943B0BC814D9044CF08F859889881543
:100F0000990524F4ED85FE85818101C080E3F1E03F
:100F10008F1A91082D853E852F5F3F4F3E872D8785
:100F2000801691062CF0B70190E00E943B0BD9CFC0
:100F3000C814D90441F49A81963320F4953319F4F6
:100F40003C8534FF81E3B70190E04EC08A81813354
:100F500019F09C859F7E9C87B70190E00E943B0B17
:100F6000111105C094FC18C085E690E017C0B701C8
:100F70008EE290E00E943B0B1E5F82E001E0080FD2
:100F8000F301E80FF11D8081B70190E00E943B0B57
:100F9000802F0113F3CFE6CF85E490E0B7010E94E4
:100FA0003B0BD7FC06C0C114D10441F4EC85E4FF2F
:100FB00005C0D194C194D1088DE201C08BE2B70184
:100FC00090E00E943B0B80E32AE0C216D1042CF093
:100FD0008F5FFAE0CF1AD108F7CFB70190E00E94F7
:100FE0003B0BB701C601C0960E943B0B54C1833630
:100FF00031F0833779F0833509F056C020C05601AF
:1010000032E0A30EB11CF6018081898301E010E07B
:10101000630112C05601F2E0AF0EB11CF601C080B0
:10102000D18096FE03C0612F70E002C06FEF7FEFAA
:10103000C6010E94300B8C01F92DFF7714C05601B8
:1010400022E0A20EB11CF601C080D18096FE03C042
:10105000612F70E002C06FEF7FEFC6010E94250B89
:101060008C01F92DF0689F2EF3FD1AC0852D90E0BC
:1010700008171907A8F4B70180E290E00E943B0B23
:101080005A94F4CFF60197FC859197FE81916F01F8
:10109000B70190E00E943B0B51105A940150110986
:1010A0000115110579F7F7C0843611F0893661F51D
:1010B000560197FE09C024E0A20EB11CF601608122
:1010C0007181828193810AC0F2E0AF0EB11CF601FA
:1010D00060817181072E000C880B990BF92DFF762A
:1010E0009F2E97FF09C090958095709561957F4FD1
:1010F0008F4F9F4FF0689F2E2AE030E0A3010E949F
:10110000770BC82EC6183FC0092D853721F40F7EF6
:101110002AE030E01DC0097F8F3691F018F4883541
:1011200059F0C3C0803719F0883711F0BEC0006194
:1011300004FF09C0046007C094FE08C0066006C032
:1011400028E030E005C020E130E002C020E132E0DC
:10115000560107FF09C084E0A80EB11CF6016081AA
:1011600071818281938108C0F2E0AF0EB11CF6015B
:101170006081718180E090E0A3010E94770BC82E0E
:10118000C6180F77902E96FE0BC0092D0E7FC11644
:1011900050F494FE0AC092FC08C0092D0E7E05C0D2
:1011A000DC2C092D03C0DC2C01C0D12E04FF0DC0A6
:1011B000FE01EC0DF11D8081803311F4097E09C020
:1011C00002FF06C0D394D39404C0802F867809F020
:1011D000D39403FD11C000FF06C01C2DD51480F46C
:1011E000150D1D190DC0D51458F4B70180E290E01B
:1011F0000E943B0BD394F7CFD51410F45D1801C0B7
:10120000512C04FF10C0B70180E390E00E943B0B1B
:1012100002FF17C001FD03C088E790E002C088E527
:1012200090E0B7010CC0802F867859F001FF02C012
:101230008BE201C080E207FD8DE2B70190E00E94E1
:101240003B0BC11638F4B70180E390E00E943B0BE2
:101250001150F7CFCA94F301EC0DF11D8081B70155
:1012600090E00E943B0BC110F5CF15C0F4E0F515DE
:1012700060F584E0581A93FE1FC0011127C02C8529
:1012800023FF2AC004EB10E0392D3071932EF801B2
:101290008491811124C0552009F4E4CCB70180E287
:1012A00090E00E943B0B5A94F6CFF701868197811C
:1012B00026C08FEF9FEF23C0B70180E290E00E942D
:1012C0003B0B5A945110F8CFD8CF512CB701802F37
:1012D00090E00E943B0BD3CF08EB10E0D5CF9110EC
:1012E0008052B70190E00E943B0B0F5F1F4FCFCFA2
:1012F00023E0251510F483E0BDCF512CC0CF6096BC
:10130000E2E10C94D609AA1BBB1B51E107C0AA1F3E
:10131000BB1FA617B70710F0A61BB70B881F991F96
:101320005A95A9F780959095BC01CD01089597FB3A
:10133000072E16F4009407D077FD09D00E94830988
:1013400007FC05D03EF4909581959F4F08957095C8
:1013500061957F4F0895A29FB001B39FC001A39FE5
:10136000700D811D1124911DB29F700D811D1124DE
:10137000911D08952F923F924F925F926F927F92AC
:101380008F929F92AF92BF92CF92DF92EF92FF9295
:101390000F931F93CF93DF93CDB7DEB7CA1BDB0B41
:1013A0000FB6F894DEBF0FBECDBF09942A883988E6
:1013B00048885F846E847D848C849B84AA84B984ED
:1013C000C884DF80EE80FD800C811B81AA81B981F9
:1013D000CE0FD11D0FB6F894DEBF0FBECDBFED010D
:1013E00008958F929F92AF92BF92CF92DF92EF9229
:1013F000FF92CF93DF93EC01688179818A819B8191
:10140000611571058105910521F464E279ED8BE5A3
:1014100097E02DE133EF41E050E00E94D50B490108
:101420005A019B01AC01A7EAB1E40E94F40B6B01E5
:101430007C01ACEEB4EFA50194010E94020CDC012A
:10144000CB018C0D9D1DAE1DBF1DB7FF03C00197C5
:10145000A109B04888839983AA83BB839F77DF91D2
:10146000CF91FF90EF90DF90CF90BF90AF909F9083
:101470008F9008950E94F109089580E091E00E9404
:10148000F1090895A0E0B0E080930001909301017C
:10149000A0930201B09303010895283008F027E0DB
:1014A0003327DA01990F311D87FD916000966105A0
:1014B000710539F432602E5F3D9330E32A95E1F7F0
:1014C00008959F3F30F080387105610509F03C5F59
:1014D0003C5F3D93913008F08068911DDF93CF937E
:1014E0001F930F93FF92EF92192F987F9695E92FF4
:1014F00096959695E90FFF27EA5EFE4F99273327C9
:10150000EE24FF24A701E70105900894079428F42E
:10151000360FE71EF81E491F511D660F771F881FE3
:10152000991F0694A1F70590079428F4E70EF81E7A
:10153000491F561FC11D770F881F991F661F0694EC
:10154000A1F70590079428F4F80E491F561FC71FEE
:10155000D11D880F991F661F771F0694A1F705906C
:10156000079420F4490F561FC71FD81F990F661FF5
:10157000771F881F0694A9F784911095177041F082
:10158000D695C79557954795F794E7941A95C1F75F
:10159000ECEBF0E06894159015913591659195917B
:1015A00005907FE27395E118F10A430B560BC90BC6
:1015B000D009C0F7E10CF11E431F561FC91FD01DF3
:1015C0007EF4703311F48A95E6CFE894015030F040
:1015D000080F0AF40027021708F4202F2395022F82
:1015E0007A3328F079E37D932A95E9F710C07D934B
:1015F0002A9589F6069497956795379517951794C8
:10160000E118F10A430B560BC90BD00998F023954A
:101610007E9173957A3308F070E37C932013B8F7CA
:101620007E9170617D9330F0839571E37D9370E3DB
:101630002A95E1F71124EF90FF900F911F91CF9120
:10164000DF91992787FD90950895FC0105906150E1
:1016500070400110D8F7809590958E0F9F1F0895C8
:10166000FC016150704001900110D8F78095909571
:101670008E0F9F1F08950F931F93CF93DF93FB014E
:10168000238121FD03C08FEF9FEF2CC022FF16C0E6
:1016900046815781248135814217530744F4A08144
:1016A000B1819D012F5F3F4F318320838C93268131
:1016B00037812F5F3F4F3783268314C08B01EC01A6
:1016C000FB010084F185E02D0995892BE1F6D80115
:1016D00016968D919C911797019617969C938E93D1
:1016E0001697CE01DF91CF911F910F910895FA01C6
:1016F000AA27283051F1203181F1E8946F936E7F51
:101700006E5F7F4F8F4F9F4FAF4FB1E03ED0B4E041
:101710003CD0670F781F891F9A1FA11D680F791F82
:101720008A1F911DA11D6A0F711D811D911DA11D93
:1017300020D009F468943F912AE0269F11243019A3
:10174000305D3193DEF6CF010895462F4770405D3E
:101750004193B3E00FD0C9F7F6CF462F4F70405DED
:101760004A3318F0495D31FD4052419302D0A9F748
:10177000EACFB4E0A6959795879577956795BA9542
:10178000C9F700976105710508959B01AC010A2E08
:1017900006945795479537952795BA95C9F7620FDF
:1017A000731F841F951FA01D0895052E97FB1EF41F
:1017B00000940E94EC0B57FD07D00E94070C07FC19
:1017C00003D04EF40C94EC0B509540953095219538
:1017D0003F4F4F4F5F4F089590958095709561955D
:1017E0007F4F8F4F9F4F08950E94AB09A59F900D8B
:1017F000B49F900DA49F800D911D11240895B7FFF3
:101800000C94F40B0E94F40B821B930B0895A1E23D
:101810001A2EAA1BBB1BFD010DC0AA1FBB1FEE1F6A
:10182000FF1FA217B307E407F50720F0A21BB30BB5
:10183000E40BF50B661F771F881F991F1A9469F731
:1018400060957095809590959B01AC01BD01CF018D
:061850000895F894FFCF9B
:0A18560001000000232323235400A7
:00000001FF
